:100000000C9446000C9450000C9450000C9450003A
:100010000C9450000C9450000C9450000C94500020
:100020000C9450000C9450000C9450000C94500010
:100030000C9450000C9450000C9450000C94500000
:100040000C9450000C9450000C9450000C945000F0
:100050000C9450000C9450000C9450000C945000E0
:100060000C9450000C9450000C9450000C945000D0
:100070000C9450000C9450000C9450000C945000C0
:100080000C9450000C9450000C94500011241FBE8E
:10009000CFEFD0E4DEBFCDBF0E9452000C947500BC
:1000A0000C94000011B88FEF87B982B918B890B1DD
:1000B00090FD02C084E001C083E091FD815092FD7B
:1000C000815093FD8150843011F488B9F0CF833092
:1000D00011F488B9ECCF823011F488B9E8CF8130BF
:0E00E00011F488B9E4CF18B8E2CFF894FFCF3E
:00000001FF
